{
  "_format": "hh-sol-artifact-1",
  "contractName": "NFT",
  "sourceName": "src/backend/contracts/NFT.sol",
  "abi": [
    {
      "inputs": [],
      "stateMutability": "nonpayable",
      "type": "constructor"
    },
    {
      "anonymous": false,
      "inputs": [
        {
          "indexed": true,
          "internalType": "address",
          "name": "owner",
          "type": "address"
        },
        {
          "indexed": true,
          "internalType": "address",
          "name": "approved",
          "type": "address"
        },
        {
          "indexed": true,
          "internalType": "uint256",
          "name": "tokenId",
          "type": "uint256"
        }
      ],
      "name": "Approval",
      "type": "event"
    },
    {
      "anonymous": false,
      "inputs": [
        {
          "indexed": true,
          "internalType": "address",
          "name": "owner",
          "type": "address"
        },
        {
          "indexed": true,
          "internalType": "address",
          "name": "operator",
          "type": "address"
        },
        {
          "indexed": false,
          "internalType": "bool",
          "name": "approved",
          "type": "bool"
        }
      ],
      "name": "ApprovalForAll",
      "type": "event"
    },
    {
      "anonymous": false,
      "inputs": [
        {
          "indexed": false,
          "internalType": "uint256",
          "name": "_fromTokenId",
          "type": "uint256"
        },
        {
          "indexed": false,
          "internalType": "uint256",
          "name": "_toTokenId",
          "type": "uint256"
        }
      ],
      "name": "BatchMetadataUpdate",
      "type": "event"
    },
    {
      "anonymous": false,
      "inputs": [
        {
          "indexed": false,
          "internalType": "uint256",
          "name": "_tokenId",
          "type": "uint256"
        }
      ],
      "name": "MetadataUpdate",
      "type": "event"
    },
    {
      "anonymous": false,
      "inputs": [
        {
          "indexed": true,
          "internalType": "address",
          "name": "from",
          "type": "address"
        },
        {
          "indexed": true,
          "internalType": "address",
          "name": "to",
          "type": "address"
        },
        {
          "indexed": true,
          "internalType": "uint256",
          "name": "tokenId",
          "type": "uint256"
        }
      ],
      "name": "Transfer",
      "type": "event"
    },
    {
      "inputs": [
        {
          "internalType": "address",
          "name": "to",
          "type": "address"
        },
        {
          "internalType": "uint256",
          "name": "tokenId",
          "type": "uint256"
        }
      ],
      "name": "approve",
      "outputs": [],
      "stateMutability": "nonpayable",
      "type": "function"
    },
    {
      "inputs": [
        {
          "internalType": "address",
          "name": "owner",
          "type": "address"
        }
      ],
      "name": "balanceOf",
      "outputs": [
        {
          "internalType": "uint256",
          "name": "",
          "type": "uint256"
        }
      ],
      "stateMutability": "view",
      "type": "function"
    },
    {
      "inputs": [
        {
          "internalType": "uint256",
          "name": "tokenId",
          "type": "uint256"
        }
      ],
      "name": "getApproved",
      "outputs": [
        {
          "internalType": "address",
          "name": "",
          "type": "address"
        }
      ],
      "stateMutability": "view",
      "type": "function"
    },
    {
      "inputs": [
        {
          "internalType": "address",
          "name": "owner",
          "type": "address"
        },
        {
          "internalType": "address",
          "name": "operator",
          "type": "address"
        }
      ],
      "name": "isApprovedForAll",
      "outputs": [
        {
          "internalType": "bool",
          "name": "",
          "type": "bool"
        }
      ],
      "stateMutability": "view",
      "type": "function"
    },
    {
      "inputs": [
        {
          "internalType": "string",
          "name": "_tokenURI",
          "type": "string"
        }
      ],
      "name": "mint",
      "outputs": [
        {
          "internalType": "uint256",
          "name": "",
          "type": "uint256"
        }
      ],
      "stateMutability": "nonpayable",
      "type": "function"
    },
    {
      "inputs": [],
      "name": "name",
      "outputs": [
        {
          "internalType": "string",
          "name": "",
          "type": "string"
        }
      ],
      "stateMutability": "view",
      "type": "function"
    },
    {
      "inputs": [
        {
          "internalType": "uint256",
          "name": "tokenId",
          "type": "uint256"
        }
      ],
      "name": "ownerOf",
      "outputs": [
        {
          "internalType": "address",
          "name": "",
          "type": "address"
        }
      ],
      "stateMutability": "view",
      "type": "function"
    },
    {
      "inputs": [
        {
          "internalType": "address",
          "name": "from",
          "type": "address"
        },
        {
          "internalType": "address",
          "name": "to",
          "type": "address"
        },
        {
          "internalType": "uint256",
          "name": "tokenId",
          "type": "uint256"
        }
      ],
      "name": "safeTransferFrom",
      "outputs": [],
      "stateMutability": "nonpayable",
      "type": "function"
    },
    {
      "inputs": [
        {
          "internalType": "address",
          "name": "from",
          "type": "address"
        },
        {
          "internalType": "address",
          "name": "to",
          "type": "address"
        },
        {
          "internalType": "uint256",
          "name": "tokenId",
          "type": "uint256"
        },
        {
          "internalType": "bytes",
          "name": "data",
          "type": "bytes"
        }
      ],
      "name": "safeTransferFrom",
      "outputs": [],
      "stateMutability": "nonpayable",
      "type": "function"
    },
    {
      "inputs": [
        {
          "internalType": "address",
          "name": "operator",
          "type": "address"
        },
        {
          "internalType": "bool",
          "name": "approved",
          "type": "bool"
        }
      ],
      "name": "setApprovalForAll",
      "outputs": [],
      "stateMutability": "nonpayable",
      "type": "function"
    },
    {
      "inputs": [
        {
          "internalType": "bytes4",
          "name": "interfaceId",
          "type": "bytes4"
        }
      ],
      "name": "supportsInterface",
      "outputs": [
        {
          "internalType": "bool",
          "name": "",
          "type": "bool"
        }
      ],
      "stateMutability": "view",
      "type": "function"
    },
    {
      "inputs": [],
      "name": "symbol",
      "outputs": [
        {
          "internalType": "string",
          "name": "",
          "type": "string"
        }
      ],
      "stateMutability": "view",
      "type": "function"
    },
    {
      "inputs": [],
      "name": "tokenCount",
      "outputs": [
        {
          "internalType": "uint256",
          "name": "",
          "type": "uint256"
        }
      ],
      "stateMutability": "view",
      "type": "function"
    },
    {
      "inputs": [
        {
          "internalType": "uint256",
          "name": "tokenId",
          "type": "uint256"
        }
      ],
      "name": "tokenURI",
      "outputs": [
        {
          "internalType": "string",
          "name": "",
          "type": "string"
        }
      ],
      "stateMutability": "view",
      "type": "function"
    },
    {
      "inputs": [
        {
          "internalType": "address",
          "name": "from",
          "type": "address"
        },
        {
          "internalType": "address",
          "name": "to",
          "type": "address"
        },
        {
          "internalType": "uint256",
          "name": "tokenId",
          "type": "uint256"
        }
      ],
      "name": "transferFrom",
      "outputs": [],
      "stateMutability": "nonpayable",
      "type": "function"
    }
  ],
  "bytecode": "0x60806040523480156200001157600080fd5b506040518060400160405280600881526020017f44417070204e46540000000000000000000000000000000000000000000000008152506040518060400160405280600481526020017f4441505000000000000000000000000000000000000000000000000000000000815250816000908051906020019062000096929190620000b8565b508060019080519060200190620000af929190620000b8565b505050620001cd565b828054620000c69062000168565b90600052602060002090601f016020900481019282620000ea576000855562000136565b82601f106200010557805160ff191683800117855562000136565b8280016001018555821562000136579182015b828111156200013557825182559160200191906001019062000118565b5b50905062000145919062000149565b5090565b5b80821115620001645760008160009055506001016200014a565b5090565b600060028204905060018216806200018157607f821691505b602082108114156200019857620001976200019e565b5b50919050565b7f4e487b7100000000000000000000000000000000000000000000000000000000600052602260045260246000fd5b612ad180620001dd6000396000f3fe608060405234801561001057600080fd5b50600436106100f55760003560e01c806370a0823111610097578063b88d4fde11610066578063b88d4fde14610284578063c87b56dd146102a0578063d85d3d27146102d0578063e985e9c514610300576100f5565b806370a08231146101fc57806395d89b411461022c5780639f181b5e1461024a578063a22cb46514610268576100f5565b8063095ea7b3116100d3578063095ea7b31461017857806323b872dd1461019457806342842e0e146101b05780636352211e146101cc576100f5565b806301ffc9a7146100fa57806306fdde031461012a578063081812fc14610148575b600080fd5b610114600480360381019061010f9190611ec6565b610330565b6040516101219190612281565b60405180910390f35b610132610391565b60405161013f919061229c565b60405180910390f35b610162600480360381019061015d9190611f59565b610423565b60405161016f919061221a565b60405180910390f35b610192600480360381019061018d9190611e8a565b610469565b005b6101ae60048036038101906101a99190611d84565b610581565b005b6101ca60048036038101906101c59190611d84565b6105e1565b005b6101e660048036038101906101e19190611f59565b610601565b6040516101f3919061221a565b60405180910390f35b61021660048036038101906102119190611d1f565b610688565b604051610223919061243e565b60405180910390f35b610234610740565b604051610241919061229c565b60405180910390f35b6102526107d2565b60405161025f919061243e565b60405180910390f35b610282600480360381019061027d9190611e4e565b6107d8565b005b61029e60048036038101906102999190611dd3565b6107ee565b005b6102ba60048036038101906102b59190611f59565b610850565b6040516102c7919061229c565b60405180910390f35b6102ea60048036038101906102e59190611f18565b610963565b6040516102f7919061243e565b60405180910390f35b61031a60048036038101906103159190611d48565b61099f565b6040516103279190612281565b60405180910390f35b6000634906490660e01b7bffffffffffffffffffffffffffffffffffffffffffffffffffffffff1916827bffffffffffffffffffffffffffffffffffffffffffffffffffffffff1916148061038a575061038982610a33565b5b9050919050565b6060600080546103a0906125d9565b80601f01602080910402602001604051908101604052809291908181526020018280546103cc906125d9565b80156104195780601f106103ee57610100808354040283529160200191610419565b820191906000526020600020905b8154815290600101906020018083116103fc57829003601f168201915b5050505050905090565b600061042e82610b15565b6004600083815260200190815260200160002060009054906101000a900473ffffffffffffffffffffffffffffffffffffffff169050919050565b600061047482610601565b90508073ffffffffffffffffffffffffffffffffffffffff168373ffffffffffffffffffffffffffffffffffffffff1614156104e5576040517f08c379a00000000000000000000000000000000000000000000000000000000081526004016104dc906123fe565b60405180910390fd5b8073ffffffffffffffffffffffffffffffffffffffff16610504610b60565b73ffffffffffffffffffffffffffffffffffffffff16148061053357506105328161052d610b60565b61099f565b5b610572576040517f08c379a00000000000000000000000000000000000000000000000000000000081526004016105699061241e565b60405180910390fd5b61057c8383610b68565b505050565b61059261058c610b60565b82610c21565b6105d1576040517f08c379a00000000000000000000000000000000000000000000000000000000081526004016105c8906122be565b60405180910390fd5b6105dc838383610cb6565b505050565b6105fc838383604051806020016040528060008152506107ee565b505050565b60008061060d83610fb0565b9050600073ffffffffffffffffffffffffffffffffffffffff168173ffffffffffffffffffffffffffffffffffffffff16141561067f576040517f08c379a0000000000000000000000000000000000000000000000000000000008152600401610676906123de565b60405180910390fd5b80915050919050565b60008073ffffffffffffffffffffffffffffffffffffffff168273ffffffffffffffffffffffffffffffffffffffff1614156106f9576040517f08c379a00000000000000000000000000000000000000000000000000000000081526004016106f09061237e565b60405180910390fd5b600360008373ffffffffffffffffffffffffffffffffffffffff1673ffffffffffffffffffffffffffffffffffffffff168152602001908152602001600020549050919050565b60606001805461074f906125d9565b80601f016020809104026020016040519081016040528092919081815260200182805461077b906125d9565b80156107c85780601f1061079d576101008083540402835291602001916107c8565b820191906000526020600020905b8154815290600101906020018083116107ab57829003601f168201915b5050505050905090565b60075481565b6107ea6107e3610b60565b8383610fed565b5050565b6107ff6107f9610b60565b83610c21565b61083e576040517f08c379a0000000000000000000000000000000000000000000000000000000008152600401610835906122be565b60405180910390fd5b61084a8484848461115a565b50505050565b606061085b82610b15565b600060066000848152602001908152602001600020805461087b906125d9565b80601f01602080910402602001604051908101604052809291908181526020018280546108a7906125d9565b80156108f45780601f106108c9576101008083540402835291602001916108f4565b820191906000526020600020905b8154815290600101906020018083116108d757829003601f168201915b5050505050905060006109056111b6565b905060008151141561091b57819250505061095e565b6000825111156109505780826040516020016109389291906121f6565b6040516020818303038152906040529250505061095e565b610959846111cd565b925050505b919050565b6000600760008154809291906109789061263c565b919050555061098933600754611235565b61099560075483611253565b6007549050919050565b6000600560008473ffffffffffffffffffffffffffffffffffffffff1673ffffffffffffffffffffffffffffffffffffffff16815260200190815260200160002060008373ffffffffffffffffffffffffffffffffffffffff1673ffffffffffffffffffffffffffffffffffffffff16815260200190815260200160002060009054906101000a900460ff16905092915050565b60007f80ac58cd000000000000000000000000000000000000000000000000000000007bffffffffffffffffffffffffffffffffffffffffffffffffffffffff1916827bffffffffffffffffffffffffffffffffffffffffffffffffffffffff19161480610afe57507f5b5e139f000000000000000000000000000000000000000000000000000000007bffffffffffffffffffffffffffffffffffffffffffffffffffffffff1916827bffffffffffffffffffffffffffffffffffffffffffffffffffffffff1916145b80610b0e5750610b0d826112fe565b5b9050919050565b610b1e81611368565b610b5d576040517f08c379a0000000000000000000000000000000000000000000000000000000008152600401610b54906123de565b60405180910390fd5b50565b600033905090565b816004600083815260200190815260200160002060006101000a81548173ffffffffffffffffffffffffffffffffffffffff021916908373ffffffffffffffffffffffffffffffffffffffff160217905550808273ffffffffffffffffffffffffffffffffffffffff16610bdb83610601565b73ffffffffffffffffffffffffffffffffffffffff167f8c5be1e5ebec7d5bd14f71427d1e84f3dd0314c0f7b2291e5b200ac8c7c3b92560405160405180910390a45050565b600080610c2d83610601565b90508073ffffffffffffffffffffffffffffffffffffffff168473ffffffffffffffffffffffffffffffffffffffff161480610c6f5750610c6e818561099f565b5b80610cad57508373ffffffffffffffffffffffffffffffffffffffff16610c9584610423565b73ffffffffffffffffffffffffffffffffffffffff16145b91505092915050565b8273ffffffffffffffffffffffffffffffffffffffff16610cd682610601565b73ffffffffffffffffffffffffffffffffffffffff1614610d2c576040517f08c379a0000000000000000000000000000000000000000000000000000000008152600401610d23906122fe565b60405180910390fd5b600073ffffffffffffffffffffffffffffffffffffffff168273ffffffffffffffffffffffffffffffffffffffff161415610d9c576040517f08c379a0000000000000000000000000000000000000000000000000000000008152600401610d939061233e565b60405180910390fd5b610da983838360016113a9565b8273ffffffffffffffffffffffffffffffffffffffff16610dc982610601565b73ffffffffffffffffffffffffffffffffffffffff1614610e1f576040517f08c379a0000000000000000000000000000000000000000000000000000000008152600401610e16906122fe565b60405180910390fd5b6004600082815260200190815260200160002060006101000a81549073ffffffffffffffffffffffffffffffffffffffff02191690556001600360008573ffffffffffffffffffffffffffffffffffffffff1673ffffffffffffffffffffffffffffffffffffffff168152602001908152602001600020600082825403925050819055506001600360008473ffffffffffffffffffffffffffffffffffffffff1673ffffffffffffffffffffffffffffffffffffffff16815260200190815260200160002060008282540192505081905550816002600083815260200190815260200160002060006101000a81548173ffffffffffffffffffffffffffffffffffffffff021916908373ffffffffffffffffffffffffffffffffffffffff160217905550808273ffffffffffffffffffffffffffffffffffffffff168473ffffffffffffffffffffffffffffffffffffffff167fddf252ad1be2c89b69c2b068fc378daa952ba7f163c4a11628f55a4df523b3ef60405160405180910390a4610fab83838360016113af565b505050565b60006002600083815260200190815260200160002060009054906101000a900473ffffffffffffffffffffffffffffffffffffffff169050919050565b8173ffffffffffffffffffffffffffffffffffffffff168373ffffffffffffffffffffffffffffffffffffffff16141561105c576040517f08c379a00000000000000000000000000000000000000000000000000000000081526004016110539061235e565b60405180910390fd5b80600560008573ffffffffffffffffffffffffffffffffffffffff1673ffffffffffffffffffffffffffffffffffffffff16815260200190815260200160002060008473ffffffffffffffffffffffffffffffffffffffff1673ffffffffffffffffffffffffffffffffffffffff16815260200190815260200160002060006101000a81548160ff0219169083151502179055508173ffffffffffffffffffffffffffffffffffffffff168373ffffffffffffffffffffffffffffffffffffffff167f17307eab39ab6107e8899845ad3d59bd9653f200f220920489ca2b5937696c318360405161114d9190612281565b60405180910390a3505050565b611165848484610cb6565b611171848484846113b5565b6111b0576040517f08c379a00000000000000000000000000000000000000000000000000000000081526004016111a7906122de565b60405180910390fd5b50505050565b606060405180602001604052806000815250905090565b60606111d882610b15565b60006111e26111b6565b90506000815111611202576040518060200160405280600081525061122d565b8061120c8461154c565b60405160200161121d9291906121f6565b6040516020818303038152906040525b915050919050565b61124f828260405180602001604052806000815250611670565b5050565b61125c82611368565b61129b576040517f08c379a00000000000000000000000000000000000000000000000000000000081526004016112929061239e565b60405180910390fd5b806006600084815260200190815260200160002090805190602001906112c2929190611b43565b507ff8e1a15aba9398e019f0b49df1a4fde98ee17ae345cb5f6b5e2c27f5033e8ce7826040516112f2919061243e565b60405180910390a15050565b60007f01ffc9a7000000000000000000000000000000000000000000000000000000007bffffffffffffffffffffffffffffffffffffffffffffffffffffffff1916827bffffffffffffffffffffffffffffffffffffffffffffffffffffffff1916149050919050565b60008073ffffffffffffffffffffffffffffffffffffffff1661138a83610fb0565b73ffffffffffffffffffffffffffffffffffffffff1614159050919050565b50505050565b50505050565b60006113d68473ffffffffffffffffffffffffffffffffffffffff166116cb565b1561153f578373ffffffffffffffffffffffffffffffffffffffff1663150b7a026113ff610b60565b8786866040518563ffffffff1660e01b81526004016114219493929190612235565b602060405180830381600087803b15801561143b57600080fd5b505af192505050801561146c57506040513d601f19601f820116820180604052508101906114699190611eef565b60015b6114ef573d806000811461149c576040519150601f19603f3d011682016040523d82523d6000602084013e6114a1565b606091505b506000815114156114e7576040517f08c379a00000000000000000000000000000000000000000000000000000000081526004016114de906122de565b60405180910390fd5b805181602001fd5b63150b7a0260e01b7bffffffffffffffffffffffffffffffffffffffffffffffffffffffff1916817bffffffffffffffffffffffffffffffffffffffffffffffffffffffff191614915050611544565b600190505b949350505050565b60606000600161155b846116ee565b01905060008167ffffffffffffffff8111156115a0577f4e487b7100000000000000000000000000000000000000000000000000000000600052604160045260246000fd5b6040519080825280601f01601f1916602001820160405280156115d25781602001600182028036833780820191505090505b509050600082602001820190505b600115611665578080600190039150507f3031323334353637383961626364656600000000000000000000000000000000600a86061a8153600a858161164f577f4e487b7100000000000000000000000000000000000000000000000000000000600052601260045260246000fd5b049450600085141561166057611665565b6115e0565b819350505050919050565b61167a8383611925565b61168760008484846113b5565b6116c6576040517f08c379a00000000000000000000000000000000000000000000000000000000081526004016116bd906122de565b60405180910390fd5b505050565b6000808273ffffffffffffffffffffffffffffffffffffffff163b119050919050565b600080600090507a184f03e93ff9f4daa797ed6e38ed64bf6a1f0100000000000000008310611772577a184f03e93ff9f4daa797ed6e38ed64bf6a1f0100000000000000008381611768577f4e487b7100000000000000000000000000000000000000000000000000000000600052601260045260246000fd5b0492506040810190505b6d04ee2d6d415b85acef810000000083106117d5576d04ee2d6d415b85acef810000000083816117cb577f4e487b7100000000000000000000000000000000000000000000000000000000600052601260045260246000fd5b0492506020810190505b662386f26fc10000831061182a57662386f26fc100008381611820577f4e487b7100000000000000000000000000000000000000000000000000000000600052601260045260246000fd5b0492506010810190505b6305f5e1008310611879576305f5e100838161186f577f4e487b7100000000000000000000000000000000000000000000000000000000600052601260045260246000fd5b0492506008810190505b61271083106118c45761271083816118ba577f4e487b7100000000000000000000000000000000000000000000000000000000600052601260045260246000fd5b0492506004810190505b6064831061190d5760648381611903577f4e487b7100000000000000000000000000000000000000000000000000000000600052601260045260246000fd5b0492506002810190505b600a831061191c576001810190505b80915050919050565b600073ffffffffffffffffffffffffffffffffffffffff168273ffffffffffffffffffffffffffffffffffffffff161415611995576040517f08c379a000000000000000000000000000000000000000000000000000000000815260040161198c906123be565b60405180910390fd5b61199e81611368565b156119de576040517f08c379a00000000000000000000000000000000000000000000000000000000081526004016119d59061231e565b60405180910390fd5b6119ec6000838360016113a9565b6119f581611368565b15611a35576040517f08c379a0000000000000000000000000000000000000000000000000000000008152600401611a2c9061231e565b60405180910390fd5b6001600360008473ffffffffffffffffffffffffffffffffffffffff1673ffffffffffffffffffffffffffffffffffffffff16815260200190815260200160002060008282540192505081905550816002600083815260200190815260200160002060006101000a81548173ffffffffffffffffffffffffffffffffffffffff021916908373ffffffffffffffffffffffffffffffffffffffff160217905550808273ffffffffffffffffffffffffffffffffffffffff16600073ffffffffffffffffffffffffffffffffffffffff167fddf252ad1be2c89b69c2b068fc378daa952ba7f163c4a11628f55a4df523b3ef60405160405180910390a4611b3f6000838360016113af565b5050565b828054611b4f906125d9565b90600052602060002090601f016020900481019282611b715760008555611bb8565b82601f10611b8a57805160ff1916838001178555611bb8565b82800160010185558215611bb8579182015b82811115611bb7578251825591602001919060010190611b9c565b5b509050611bc59190611bc9565b5090565b5b80821115611be2576000816000905550600101611bca565b5090565b6000611bf9611bf48461247e565b612459565b905082815260208101848484011115611c1157600080fd5b611c1c848285612597565b509392505050565b6000611c37611c32846124af565b612459565b905082815260208101848484011115611c4f57600080fd5b611c5a848285612597565b509392505050565b600081359050611c7181612a3f565b92915050565b600081359050611c8681612a56565b92915050565b600081359050611c9b81612a6d565b92915050565b600081519050611cb081612a6d565b92915050565b600082601f830112611cc757600080fd5b8135611cd7848260208601611be6565b91505092915050565b600082601f830112611cf157600080fd5b8135611d01848260208601611c24565b91505092915050565b600081359050611d1981612a84565b92915050565b600060208284031215611d3157600080fd5b6000611d3f84828501611c62565b91505092915050565b60008060408385031215611d5b57600080fd5b6000611d6985828601611c62565b9250506020611d7a85828601611c62565b9150509250929050565b600080600060608486031215611d9957600080fd5b6000611da786828701611c62565b9350506020611db886828701611c62565b9250506040611dc986828701611d0a565b9150509250925092565b60008060008060808587031215611de957600080fd5b6000611df787828801611c62565b9450506020611e0887828801611c62565b9350506040611e1987828801611d0a565b925050606085013567ffffffffffffffff811115611e3657600080fd5b611e4287828801611cb6565b91505092959194509250565b60008060408385031215611e6157600080fd5b6000611e6f85828601611c62565b9250506020611e8085828601611c77565b9150509250929050565b60008060408385031215611e9d57600080fd5b6000611eab85828601611c62565b9250506020611ebc85828601611d0a565b9150509250929050565b600060208284031215611ed857600080fd5b6000611ee684828501611c8c565b91505092915050565b600060208284031215611f0157600080fd5b6000611f0f84828501611ca1565b91505092915050565b600060208284031215611f2a57600080fd5b600082013567ffffffffffffffff811115611f4457600080fd5b611f5084828501611ce0565b91505092915050565b600060208284031215611f6b57600080fd5b6000611f7984828501611d0a565b91505092915050565b611f8b81612523565b82525050565b611f9a81612535565b82525050565b6000611fab826124e0565b611fb581856124f6565b9350611fc58185602086016125a6565b611fce81612712565b840191505092915050565b6000611fe4826124eb565b611fee8185612507565b9350611ffe8185602086016125a6565b61200781612712565b840191505092915050565b600061201d826124eb565b6120278185612518565b93506120378185602086016125a6565b80840191505092915050565b6000612050602d83612507565b915061205b82612723565b604082019050919050565b6000612073603283612507565b915061207e82612772565b604082019050919050565b6000612096602583612507565b91506120a1826127c1565b604082019050919050565b60006120b9601c83612507565b91506120c482612810565b602082019050919050565b60006120dc602483612507565b91506120e782612839565b604082019050919050565b60006120ff601983612507565b915061210a82612888565b602082019050919050565b6000612122602983612507565b915061212d826128b1565b604082019050919050565b6000612145602e83612507565b915061215082612900565b604082019050919050565b6000612168602083612507565b91506121738261294f565b602082019050919050565b600061218b601883612507565b915061219682612978565b602082019050919050565b60006121ae602183612507565b91506121b9826129a1565b604082019050919050565b60006121d1603d83612507565b91506121dc826129f0565b604082019050919050565b6121f08161258d565b82525050565b60006122028285612012565b915061220e8284612012565b91508190509392505050565b600060208201905061222f6000830184611f82565b92915050565b600060808201905061224a6000830187611f82565b6122576020830186611f82565b61226460408301856121e7565b81810360608301526122768184611fa0565b905095945050505050565b60006020820190506122966000830184611f91565b92915050565b600060208201905081810360008301526122b68184611fd9565b905092915050565b600060208201905081810360008301526122d781612043565b9050919050565b600060208201905081810360008301526122f781612066565b9050919050565b6000602082019050818103600083015261231781612089565b9050919050565b60006020820190508181036000830152612337816120ac565b9050919050565b60006020820190508181036000830152612357816120cf565b9050919050565b60006020820190508181036000830152612377816120f2565b9050919050565b6000602082019050818103600083015261239781612115565b9050919050565b600060208201905081810360008301526123b781612138565b9050919050565b600060208201905081810360008301526123d78161215b565b9050919050565b600060208201905081810360008301526123f78161217e565b9050919050565b60006020820190508181036000830152612417816121a1565b9050919050565b60006020820190508181036000830152612437816121c4565b9050919050565b600060208201905061245360008301846121e7565b92915050565b6000612463612474565b905061246f828261260b565b919050565b6000604051905090565b600067ffffffffffffffff821115612499576124986126e3565b5b6124a282612712565b9050602081019050919050565b600067ffffffffffffffff8211156124ca576124c96126e3565b5b6124d382612712565b9050602081019050919050565b600081519050919050565b600081519050919050565b600082825260208201905092915050565b600082825260208201905092915050565b600081905092915050565b600061252e8261256d565b9050919050565b60008115159050919050565b60007fffffffff0000000000000000000000000000000000000000000000000000000082169050919050565b600073ffffffffffffffffffffffffffffffffffffffff82169050919050565b6000819050919050565b82818337600083830152505050565b60005b838110156125c45780820151818401526020810190506125a9565b838111156125d3576000848401525b50505050565b600060028204905060018216806125f157607f821691505b60208210811415612605576126046126b4565b5b50919050565b61261482612712565b810181811067ffffffffffffffff82111715612633576126326126e3565b5b80604052505050565b60006126478261258d565b91507fffffffffffffffffffffffffffffffffffffffffffffffffffffffffffffffff82141561267a57612679612685565b5b600182019050919050565b7f4e487b7100000000000000000000000000000000000000000000000000000000600052601160045260246000fd5b7f4e487b7100000000000000000000000000000000000000000000000000000000600052602260045260246000fd5b7f4e487b7100000000000000000000000000000000000000000000000000000000600052604160045260246000fd5b6000601f19601f8301169050919050565b7f4552433732313a2063616c6c6572206973206e6f7420746f6b656e206f776e6560008201527f72206f7220617070726f76656400000000000000000000000000000000000000602082015250565b7f4552433732313a207472616e7366657220746f206e6f6e20455243373231526560008201527f63656976657220696d706c656d656e7465720000000000000000000000000000602082015250565b7f4552433732313a207472616e736665722066726f6d20696e636f72726563742060008201527f6f776e6572000000000000000000000000000000000000000000000000000000602082015250565b7f4552433732313a20746f6b656e20616c7265616479206d696e74656400000000600082015250565b7f4552433732313a207472616e7366657220746f20746865207a65726f2061646460008201527f7265737300000000000000000000000000000000000000000000000000000000602082015250565b7f4552433732313a20617070726f766520746f2063616c6c657200000000000000600082015250565b7f4552433732313a2061646472657373207a65726f206973206e6f74206120766160008201527f6c6964206f776e65720000000000000000000000000000000000000000000000602082015250565b7f45524337323155524953746f726167653a2055524920736574206f66206e6f6e60008201527f6578697374656e7420746f6b656e000000000000000000000000000000000000602082015250565b7f4552433732313a206d696e7420746f20746865207a65726f2061646472657373600082015250565b7f4552433732313a20696e76616c696420746f6b656e2049440000000000000000600082015250565b7f4552433732313a20617070726f76616c20746f2063757272656e74206f776e6560008201527f7200000000000000000000000000000000000000000000000000000000000000602082015250565b7f4552433732313a20617070726f76652063616c6c6572206973206e6f7420746f60008201527f6b656e206f776e6572206f7220617070726f76656420666f7220616c6c000000602082015250565b612a4881612523565b8114612a5357600080fd5b50565b612a5f81612535565b8114612a6a57600080fd5b50565b612a7681612541565b8114612a8157600080fd5b50565b612a8d8161258d565b8114612a9857600080fd5b5056fea26469706673582212208e94cb39c174ae0720bbf0c2d4ec94d88a0dc16856581b7ae68a7a0c769d50c864736f6c63430008040033",
  "linkReferences": {},
  "deployedLinkReferences": {}
}